:020000040800F2
:10000000F8090020CD01000881390008CB30000834
:100010007D390008C10300083B3F000800000000D4
:10002000000000000000000000000000B1390008DE
:10003000D50300080000000085390008B339000826
:10004000E7010008E7010008E7010008E7010008F0
:10005000E7010008E7010008E7010008E7010008E0
:10006000E7010008E7010008E7010008E7010008D0
:10007000C5030008E7010008E7010008E7010008E0
:10008000E7010008E7010008E7010008E7010008B0
:10009000E7010008E7010008E7010008E7010008A0
:1000A000E7010008E7010008E7010008E701000890
:1000B000E7010008E7010008E7010008E701000880
:1000C000E7010008E7010008E7010008E701000870
:1000D000E7010008E7010008E7010008E701000860
:1000E000E7010008E7010008E7010008E701000850
:1000F000E7010008E7010008E7010008E701000840
:10010000E7010008E7010008E7010008E70100082F
:10011000E7010008E7010008413A0008513A0008E9
:10012000E7010008E7010008E7010008E70100080F
:1001300000F002F800F03AF80AA090E8000C8244BF
:100140008344AAF10107DA4501D100F02FF8AFF29C
:10015000090EBAE80F0013F0010F18BFFB1A43F0A5
:10016000010318472440000044400000103A24BF17
:1001700078C878C1FAD8520724BF30C830C144BF0C
:1001800004680C607047000000230024002500264E
:10019000103A28BF78C1FBD8520728BF30C148BFEA
:1001A0000B6070471FB51FBD10B510BD00F058F8AB
:1001B0001146FFF7F7FF03F035FF00F076F803B4C0
:1001C000FFF7F2FF03BC00F07DF80000094880470C
:1001D00009480047FEE7FEE7FEE7FEE7FEE7FEE729
:1001E000FEE7FEE7FEE7FEE704480549054A064B41
:1001F000704700003D3A000831010008F803002074
:10020000F8090020F8050020F80500204FF0000252
:1002100000B5134694469646203922BFA0E80C50FC
:10022000A0E80C50B1F12001BFF4F7AF090728BFD7
:10023000A0E80C5048BF0CC05DF804EB890028BF53
:1002400040F8042B08BF704748BF20F8022B11F07C
:10025000804F18BF00F8012B7047704770477047F8
:10026000754600F02BF8AE4605006946534620F06F
:100270000700854618B020B5FFF7B6FFBDE820405F
:100280004FF000064FF000074FF000084FF0000B52
:1002900021F00701AC46ACE8C009ACE8C009ACE805
:1002A000C009ACE8C0098D46704710B50446AFF3ED
:1002B00000802046BDE81040FFF781BF004870472E
:1002C0009403002001491820ABBEFEE7260002007F
:1002D000704770B5044600252068806800F0010072
:1002E00018B32068806820F001002168886001F060
:1002F00077F9054613E001F073F9401B02280ED987
:100300002068806800F0010048B1A06A40F0100049
:10031000A062E06A40F00100E062012070BD206848
:10032000806800F001000028E5D10020F6E7000019
:1003300038B504460025002000902068806800F051
:10034000010078BB2068806840F001002168886067
:10035000194800681949B0FBF1F0009002E00098DC
:10036000401E009000980028F9D101F039F90546A7
:1003700019E001F035F9401B022814D92068806883
:1003800000F0010078B9A06A40F01000A062E06AB5
:1003900040F00100E06200BF002084F8240000BFAC
:1003A000012038BD05E02068806800F001000028C9
:1003B000DFD00020F5E700000C00002040420F00D5
:1003C00000BFFEE710B5024800F052FD10BD00006E
:1003D00010010020704772B600BFFEE7F8B5044672
:1003E00000260020009000BF94F82400012801D1CD
:1003F0000220F8BD012084F8240000BF2046FFF74A
:1004000068FF06462046FFF793FF0646002E69D197
:10041000A06A20F4885040F00200A062022001F09F
:10042000B7F934490968B1FBF0F04000009002E0F0
:100430000098401E009000980028F9D1206880683C
:1004400040F008002168886001F0CAF8054616E00F
:1004500001F0C6F8401B0A2811D92068806800F016
:10046000080060B1A06A20F0020040F01000A06215
:1004700000BF002084F8240000BF0120B9E72068F5
:10048000806800F008000028E2D12068806840F011
:1004900004002168886001F0A3F8054616E001F029
:1004A0009FF8401B0A2811D92068806800F00400DA
:1004B00060B1A06A20F0020040F01000A06200BF0E
:1004C000002084F8240000BF012092E720688068A3
:1004D00000F004000028E2D1A06A20F0020040F001
:1004E0000100A06200BF002084F8240000BF304655
:1004F0007FE700000C00002038B5024600230020F2
:100500000090906800B100BF00BF92F8240001285D
:1005100001D1022038BD012082F8240000BF90687C
:1005200090B94868012809D11068806B6FF31500F5
:100530000C6840EAC4301468A06338E0906A40F068
:1005400020009062012332E00C694868A0421ED866
:100550004C680869001BC0F1030000EB80041F20F9
:10056000A04040F440141068806BA0434D680C69B3
:10057000641BC4F1030404EB84050C68AC400D8AD1
:100580006D1E44EA055420431468A0630FE04C68D4
:100590000869001BC0F1030000EB80041F20A0408D
:1005A00040F440141068806BA0431468A063106886
:1005B000806800F00100A8B91068806847F2010463
:1005C000A043664D1468AC4208D18C69B4F5C04FA5
:1005D00002D14FF4804402E08C6900E08C69204332
:1005E0001468A060487D01280FD18869B0F5E04FFC
:1005F00006D11068406840F480601468606004E0D0
:10060000906A40F0200090620123087D01280DD1FE
:10061000487D30B91068406840F4805014686060CC
:1006200004E0906A40F020009062012308680A28E4
:1006300012D31068C0680C780A3C04EB4405072408
:10064000AC40A0430D780A3D05EB45058C68AC40F5
:1006500020431468E0600FE0106800690C7804EB38
:1006600044050724AC40A0430D7805EB45058C6894
:10067000AC402043146820610868102802D0086844
:10068000112805D11068806840F400001468A0604B
:100690004868012806D002280DD0032814D0042869
:1006A0001BD11BE0106840696FF30B00CC6820433E
:1006B000146860611BE0106880696FF30B00CC6800
:1006C00020431468A06112E01068C0696FF30B004A
:1006D000CC6820431468E06109E000BF1068006A3C
:1006E0006FF30B00CC6820431468206200BF00BF8A
:1006F0000868102802D00868112827D1184C106803
:10070000A0421ED11068806800F40000F0B91068A3
:10071000806840F400001468A0600868102815D1B3
:1007200010480068104CB0FBF4F000EB8000400073
:10073000009002E00098401E009000980028F9D137
:1007400004E0906A40F020009062012300BF002086
:1007500082F8240000BF1846DCE60000003C01409F
:10076000002401400C00002040420F0002460020FF
:1007700001290FD0022909D0032904D0042908D166
:100780001368986C09E01368586C06E01368186CDD
:1007900003E000BF1368D86B00BF00BF70470000C4
:1007A00070B50446002500BF94F82400012801D14B
:1007B000022070BD012084F8240000BF2046FFF70E
:1007C000B7FD0546002D5BD1A06A42F201018843C6
:1007D00040F48050A0622E492068884208D12D48FC
:1007E000006800F4702008B9012002E0002000E059
:1007F000012020B1A06A20F48010A06203E0A06A6A
:1008000040F48010A062A06A00F4807008B9002053
:10081000E06200BF002084F8240000BF401F216870
:1008200008602068406840F08000216848602068C7
:10083000406800F4806010BB2068806800F4E040ED
:10084000B0F5E04F15D112492068884208D111480F
:10085000006800F4702008B9012002E0002000E0E8
:10086000012030B12068806840F40210216888605F
:100870000BE02068806840F400402168886004E054
:1008800000BF002084F8240000BF284691E7000044
:10089000002801400424014038B50246002300200E
:1008A000009000BF92F82400012801D1022038BD39
:1008B000012082F8240000BF4868072812D210687F
:1008C000406B0C79641E04EB84051F24AC40A043EC
:1008D0000D796D1E05EB85050C68AC40204314684E
:1008E000606327E048680D2812D21068006B0C790D
:1008F000E41F04EB84051F24AC40A0430D79ED1FD9
:1009000005EB85050C68AC4020431468206311E0BA
:100910001068C06A0C790D3C04EB84051F24AC40C0
:10092000A0430D790D3D05EB85050C68AC402043D7
:100930001468E06208680A2812D31068C0680C784E
:100940000A3C04EB44050724AC40A0430D780A3D63
:1009500005EB45058C68AC4020431468E0600FE06F
:10096000106800690C7804EB44050724AC40A043F0
:100970000D7805EB45058C68AC4020431468206178
:100980000868102802D00868112827D1174C106871
:10099000A0421ED11068806800F40000F0B9106811
:1009A000806840F400001468A0600868102815D121
:1009B0000F4800680F4CB0FBF4F000EB80004000E3
:1009C000009002E00098401E009000980028F9D1A5
:1009D00004E0906A40F020009062012300BF0020F4
:1009E00082F8240000BF184661E70000002401409F
:1009F0000C00002040420F002DE9F0410446002782
:100A000000250026A84614B90120BDE8F081A068A1
:100A100010B1207D00B100BFA06A30B90020E062B3
:100A200084F82400204600F097F82046FFF751FC98
:100A30000746A06A00F01000002873D1002F7ED175
:100A4000A06A20F4885040F00200A0623F4AD4E936
:100A50000001904208D1E069B0F5402F02D14FF477
:100A6000002002E0E06900E0E0690143207B41EA08
:100A700040000643A068B0F5807F02D0A06801283E
:100A800002D14FF4807000E000200543207D012852
:100A900011D1207B38B9A069401E4FF4006141EAB2
:100AA0004030054307E0A06A40F02000A062E06A01
:100AB00040F00100E0622068406820F4694028436B
:100AC00021684860206880682149084030432168D7
:100AD0008860A068B0F5807F02D0A068012802D1AC
:100AE0004FF4807000E00020B0F5807F03D1208AB1
:100AF000401E4FEA00582068C06A20F4700040EAA7
:100B000008002168C8622068806812490840B04225
:100B100009D10020E062A06A20F0020040F001004C
:100B2000A06211E00BE0A06A20F0020040F010008B
:100B3000A062E06A40F00100E062012704E0A06AE0
:100B400040F01000A062012738465EE7003C0140FB
:100B5000FDF7E1FFFE0E1FFF10B586B00446002032
:100B600002900390049005903C492068884237D158
:100B700000BF3B48806940F40070394988610846ED
:100B8000806900F40070019000BF00BF00BF0846FC
:100B9000806940F0040088610846806900F0040024
:100BA000019000BF00BF00BF0846806940F0080008
:100BB00088610846806900F00800019000BF00BF0E
:100BC000A02002900320039002A9264800F062FBB7
:100BD00003200290039002A9234800F05BFB3BE056
:100BE00022492068884237D100BF1D48806940F4FF
:100BF00080601B4988610846806900F4806001902C
:100C000000BF00BF00BF0846806940F01000886147
:100C10000846806900F01000019000BF00BF00BFCF
:100C20000846806940F0040088610846806900F049
:100C30000400019000BF00BF042002900320039035
:100C400002A90B4800F026FB182002900320039015
:100C500002A9044800F01EFB06B010BD00240140AC
:100C60000010024000080140000C01400028014033
:100C70000010014070B504460CB9012070BD94F815
:100C8000200010B9204600F0AFF82068006840F05E
:100C900001002168086000F0A3FC05460DE000F0AB
:100CA0009FFC401B0A2808D9606A40F4003060624B
:100CB000052084F820000120E0E72068406800F06B
:100CC00001000028EBD02068006820F002002168B5
:100CD000086000F085FC05460DE000F081FC401B3B
:100CE0000A2808D9606A40F400306062052084F860
:100CF00020000120C2E72068406800F002000028C0
:100D0000EBD1207E012806D12068006840F08000E9
:100D10002168086005E02068006820F080002168F4
:100D20000860607E012806D12068006840F040001D
:100D30002168086005E02068006820F04000216814
:100D40000860A07E012806D12068006840F02000DD
:100D50002168086005E02068006820F02000216814
:100D60000860E07E012806D12068006820F01000AD
:100D70002168086005E02068006840F010002168E4
:100D80000860207F012806D12068006840F0080034
:100D90002168086005E02068006820F008002168EC
:100DA0000860607F012806D12068006840F00400D8
:100DB0002168086005E02068006820F004002168D0
:100DC0000860D4E9020108432169084361690843C6
:100DD0006168491E08432168C861002060620120E3
:100DE00084F82000002049E710B586B004460020B2
:100DF00002900390049005901A49206888422ED1F1
:100E000000BF1948C06940F000701749C861084622
:100E1000C06900F00070019000BF00BF00BF08462D
:100E2000806940F0040088610846806900F0040091
:100E3000019000BF00BFC8140290002003900490EE
:100E400002A90A4800F026FA4FF4805002900220CE
:100E500003900320059002A9044800F01BFA06B095
:100E600010BD000000640040001002400008014076
:100E700070B50446E06B05682068066894F8401079
:100E8000042088402840002875D006F0040000287F
:100E9000FAD02068006800F0200028B920680068B7
:100EA00020F0040021680860D5492068884254D9A0
:100EB000D34978392068884201D1042049E0D049DB
:100EC00064392068884201D1402042E0CC49503941
:100ED0002068884201D100153BE0C9493C392068AF
:100EE000884202D14FF4804033E0C5492839206858
:100EF000884202D14FF480202BE0C1491439206888
:100F0000884202D14FF4800023E0BD492068884226
:100F100001D1C0041DE0BB492068884201D10420F2
:100F200017E0B84914312068884201D1402010E010
:100F3000B44928312068884201D1001509E0B1493F
:100F40003C312068884202D14FF4804001E04FF4E8
:100F50008020AC49091F086054E0A949783920680D
:100F6000884201D104204AE0A549643920688842BA
:100F700002D1402043E04CE0A1495039206888422A
:100F800001D100153BE09E493C392068884202D1DE
:100F90004FF4804033E09A4928392068884202D1D2
:100FA0004FF480202BE0964914392068884202D102
:100FB0004FF4800023E092492068884201D1C004A8
:100FC0001DE090492068884201D1042017E08D4936
:100FD00014312068884201D1402010E0894928312D
:100FE0002068884201D1001509E086493C3120681B
:100FF000884202D14FF4804001E04FF480208049C4
:1010000080394860E06A002802D02046E16A8847BB
:10101000F4E094F84010022088402840002871D065
:1010200006F002000028FAD02068006800F02000D6
:1010300040B92068006820F00A002168086001209B
:1010400084F821006E492068884254D96C49783967
:101050002068884201D1022049E06949643920684A
:10106000884201D1202042E06549503920688842F9
:1010700001D140153BE062493C392068884202D1E9
:101080004FF4005033E05E4928392068884202D18D
:101090004FF400302BE05A4914392068884202D1BD
:1010A0004FF4001023E056492068884201D18004A3
:1010B0001DE054492068884201D1022017E05149BF
:1010C00014312068884201D1202010E04D49283198
:1010D0002068884201D1401509E04A493C31206826
:1010E000884202D14FF4005001E04FF400304549EE
:1010F000091F086054E0424978392068884202D1CB
:1011000002204AE057E03E4964392068884201D114
:10111000202042E03A4950392068884201D14015E8
:101120003BE037493C392068884202D14FF40050F7
:1011300033E0334928392068884202D14FF4003027
:101140002BE02F4914392068884202D14FF4001057
:1011500023E02B492068884201D180041DE0294901
:101160002068884201D1022017E026491431206806
:10117000884201D1202010E022492831206888428D
:1011800001D1401509E01F493C312068884202D155
:101190004FF4005001E04FF40030194980394860A5
:1011A00000BF002084F8200000BFA06A30B32046B2
:1011B000A16A884722E094F840100820884028401F
:1011C000E0B106F00800C8B12068006820F00E0009
:1011D0002168086094F8401001208840E16B486065
:1011E0000120A06384F8210000BF002084F82000C3
:1011F00000BF206B10B12046216B884770BD0000F6
:1012000080000240080402400146002209B9012082
:1012100070471E4B086898420BD21D4B0868C01AD5
:101220001423B0FBF3F08000086419480838C86341
:101230000AE0164B0868C01A1423B0FBF3F08000D4
:10124000086412480838C863022081F82100086841
:10125000026843F6F0708243D1E901031843CB687A
:1012600018430B6918434B6918438B691843CB69C2
:10127000184302430868026000208863012081F857
:101280002100002081F8200000BFC1E708040240CF
:10129000080002402DE9F847024600239C467BE106
:1012A0004FF0010808FA03F4D1F8008008EA0400BE
:1012B000A0427DD1DFF8F4A2D1F80480A8EB0A099E
:1012C000D0453AD014DCB8F1030F50D009DCB8F1A6
:1012D000000F31D0B8F1010F1CD0B8F1020F49D185
:1012E00020E0B8F1110F18D0B8F1120F42D11EE072
:1012F000B9F5881F25D006DCB9F5803F20D0B9F5B7
:10130000801F37D11AE0B9F5001F18D0B9F5041FB6
:1013100030D117E0D1F80CC02DE0D1F80C8008F1E5
:10132000040C28E0D1F80C8008F1080C23E0D1F877
:101330000C8008F10C0C1EE000BF00BF00BF00BF16
:1013400000BF00BFD1F80880B8F1000F02D14FF004
:10135000040C0BE0D1F80880B8F1010F03D14FF075
:10136000080C146102E04FF0080C546103E04FF0E8
:10137000000C00E000BF00BFFF2801D8904601E04C
:1013800002F104084646FF2802D84FEA830803E02A
:10139000A3F108084FEA88084746D6F800804FF0C6
:1013A0000F0909FA07F928EA09080CFA07F900E019
:1013B0007AE048EA0908C6F80080D1F8048008F00D
:1013C0008058B8F1805F6FD100BFDFF8E481D8F8B2
:1013D000188048F00108DFF8D891C9F81880C8468D
:1013E000D8F8188008F00108CDF8008000BF00BFD1
:1013F0004FEAB9384FEA930958F829504FEA8378F1
:101400004FEA18794FF00F0808FA09F825EA08059D
:10141000DFF8A081424502D14FF0000824E0DFF858
:101420009881424502D14FF001081DE0DFF88C8120
:10143000424502D14FF0020816E0DFF884814245B0
:1014400002D14FF003080FE0DFF87881424502D166
:101450004FF0040808E0DFF87081424502D14FF0F8
:10146000050801E04FF006084FEA83794FEA197941
:1014700008FA09F848EA0505DFF850814FEA9309B0
:1014800048F82950D1F8048008F48018B8F5801F76
:101490000BD1DFF83C81D8F8008048EA0008DFF87B
:1014A0003091C9F800800AE075E0DFF82481D8F8AF
:1014B000008028EA0008DFF81891C9F80080D1F808
:1014C000048008F40018B8F5001F0ED1DFF8008181
:1014D00008F10408D8F8008048EA0008DFF8F09026
:1014E00009F10409C9F800800DE0DFF8E48008F193
:1014F0000408D8F8008028EA0008DFF8D49009F141
:101500000409C9F80080D1F8048008F40038B8F55F
:10151000003F0ED1DFF8B880A8F10408D8F80080A9
:1015200048EA0008DFF8A890A9F10409C9F800808A
:101530000DE0DFF89C80A8F10408D8F8008028EAC4
:101540000008DFF88C90A9F10409C9F80080D1F8EF
:10155000048008F48038B8F5803F0ED1DFF8708041
:10156000A8F10808D8F8008048EA0008DFF8609081
:10157000A9F10809C9F800800DE0DFF85480A8F14E
:101580000808D8F8008028EA0008DFF84490A9F19C
:101590000809C9F800805B1CD1F8008028FA03F81C
:1015A000B8F1000F7FF47CAEBDE8F88700001110A1
:1015B0000010024000080140000C014000100140F2
:1015C0000014014000180140001C014008000140C7
:1015D000080401400AB1016101E00B040361704796
:1015E00001480068704700000000002003480068C0
:1015F0000349097808440149086070470000002049
:101600000800002010B50848006840F010000649A6
:101610000860032000F0A8F80F2000F007F800F0A1
:101620002BF8002010BD00000020024070B50446D9
:101630000E4800784FF47A71B1FBF0F00C4909685C
:10164000B1FBF0F5284600F0D9FD08B1012070BDCE
:10165000102C07D200222146501E00F047F8054802
:10166000046001E00120F2E70020F0E7080000201C
:101670000C0000200400002008B500BF114880695C
:1016800040F001000F4988610846806900F00100C0
:10169000009000BF00BF00BF0846C06940F0805006
:1016A000C8610846C06900F08050009000BF00BFCC
:1016B00000BF0549486820F0E06040F000704860D5
:1016C00000BF08BD0010024000000140014608466E
:1016D000002809DB00F01F0301229A4043099B0008
:1016E00003F1E023C3F8002100BF70472DE9F05F4C
:1016F00080460D461646002702F022FC0746394672
:101700002A46334601F00700C0F1070ABAF1040F78
:1017100002D94FF0040A01E0C0F1070AD14600F1F6
:10172000040ABAF1070F02D24FF0000A01E0A0F15B
:10173000030AD4464FF0010A0AFA09FAAAF1010A8B
:101740000AEA020A0AFA0CFA4FF0010B0BFA0CFB38
:10175000ABF1010B0BEA030B4AEA0B0421464046AE
:1017600002F0F6FBBDE8F09F00BF00F00702064B59
:1017700019684FF6FF031940044B0B4343EA02215B
:10178000014B196000BF70470CED00E00000FA0546
:101790002DE9F04706464FF00008002500270024F9
:1017A000A146042E37D004DC012E3CD0022E6CD191
:1017B00060E0082E33D0102E67D1364844680068A8
:1017C00000F0807008B33448C4F38341475C04F4EC
:1017D000803078B12F484068C0F340402F4911F85D
:1017E000008004F4803040B12D48B0FBF8F000FBDD
:1017F00007F502E02B4807FB00F52648406800F497
:101800008000B0F5800F01D1A94603E068000321F4
:10181000B0FBF1F93AE000F0BBF9814636E000F0A8
:10182000B7F9814632E01B48046A04F44070B0F511
:10183000807F05D104F0020010B14FF4004918E098
:1018400004F44070B0F5007F07D11248406A00F000
:10185000020010B149F640490BE004F44070B0F5C5
:10186000407F06D10B48006800F4003008B14FF209
:1018700024490BE000F07CF906494968C1F3813145
:10188000491C4900B0FBF1F900E000BF00BF484629
:10189000BDE8F087001002405E4100086E4100087C
:1018A00000127A0000093D00F8B504460026002524
:1018B000207800F0010000286BD000274348C06961
:1018C00000F0805070B900BF4048C06940F08050BF
:1018D0003E49C8610846C06900F08050009000BFD2
:1018E00000BF01273A48006800F48070B0B938485A
:1018F000006840F4807036490860FFF771FE0646C4
:1019000006E0FFF76DFE801B642801D90320F8BDB7
:101910002F48006800F480700028F2D02B48006A3D
:1019200000F440752DB3A08800F44070A84220D088
:101930002648006A20F440750120264908600020EE
:1019400008602248056205F0010090B1FFF748FEEB
:10195000064608E0FFF744FE801B41F288318842CA
:1019600001D90320D3E71948006A00F002000028DB
:10197000F0D01648006A20F44070616808431349AB
:101980000862012F04D10846C06920F08050C86168
:1019900000BF207800F00200022807D10B48406801
:1019A00020F44040A168084308494860207800F0CE
:1019B0001000102807D10548406820F480006169B4
:1019C0000843024948600020A1E7000000100240DF
:1019D000007000404004424270B504460D460CB908
:1019E000012070BD5A48006800F00700A8420ED2DE
:1019F0005748006820F0070028435549086008460A
:101A0000006800F00700A84201D00120E9E7207833
:101A100000F0020002281DD1207800F00400042804
:101A200005D14C48406840F4E0604A49486020785D
:101A300000F00800082805D14648406840F460508E
:101A4000444948604348406820F0F000A1680843DA
:101A500040494860207800F0010078B360680128B0
:101A600006D13C48006800F4003090B90120B8E786
:101A70006068022806D13748006800F0007040B95D
:101A80000120AEE73348006800F0020008B90120E9
:101A9000A7E73048406820F00300616808432D49FB
:101AA0004860FFF79DFD064609E0FFF799FD801BA2
:101AB00041F28831884202D9032092E707E02548A5
:101AC000406800F00C006168B0EB810FEDD1204858
:101AD000006800F00700A8420ED91D48006820F0F9
:101AE000070028431A4908600846006800F007000C
:101AF000A84201D0012074E7207800F004000428F7
:101B000007D11448406820F4E060E16808431149B7
:101B10004860207800F00800082808D10D48406887
:101B200020F46050216940EAC1000A49486000F091
:101B30002FF808494968C1F30311074A515CC840AE
:101B40000649086006480068FFF770FD002048E776
:101B50000020024000100240704100080C000020EC
:101B60000400002001480068704700000C000020BD
:101B700000B5FFF7F7FF04494968C1F3C221034AE2
:101B8000515CC84000BD00000010024080410008C8
:101B900070B500210022002400230020134D696845
:101BA00001F00C05F5B1042D02D0082D19D101E08A
:101BB0000F4819E00F4DC1F38346AB5D01F480354A
:101BC00055B10A4D6D68C5F340450B4E725D084D29
:101BD0005D43B5FBF2F402E0084D03FB05F420463B
:101BE00002E000BF024800BF00BF70BD001002400D
:101BF00000127A004C4100085C41000800093D00D9
:101C0000F8B504460CB90120F8BD207800F00100B9
:101C1000002878D0F848406800F00C0004280CD068
:101C2000F548406800F00C00082811D1F2484068DF
:101C300000F48030B0F5803F0AD1EF48006800F42E
:101C4000003000285FD0606800285CD10120DBE70D
:101C500000BF6068B0F5803F06D1E748006840F4F7
:101C60008030E549086028E0606858B9E2480068BB
:101C700020F48030E04908600846006820F48020A5
:101C800008601AE06068B0F5A02F0BD1DA48006850
:101C900040F48020D84908600846006840F480304D
:101CA00008600AE0D448006820F48030D249086017
:101CB0000846006820F48020086000BF606888B192
:101CC000FFF78EFC054606E0FFF78AFC401B642800
:101CD00001D9032098E7C848006800F400300028C4
:101CE000F2D010E0FFF77CFC054606E0FFF778FC39
:101CF000401B642801D9032086E7BF48006800F430
:101D000000300028F2D1207800F00200022857D1DC
:101D1000B948406800F00C0050B1B748406800F086
:101D20000C00082818D1B448406800F4803098B9F5
:101D3000B148006800F0020020B12069012801D0FC
:101D4000012061E7AC48006820F0F800616940EAD2
:101D5000C100A949086033E02069E8B10120A74922
:101D60000860FFF73DFC054606E0FFF739FC401B25
:101D7000022801D9032047E79F48006800F00200CD
:101D80000028F2D09C48006820F0F800616940EA21
:101D9000C1009949086013E0002098490860FFF7E6
:101DA0001FFC054606E0FFF71BFC401B022801D97B
:101DB000032029E79048006800F002000028F2D1D3
:101DC000207800F0080008282DD1A069B8B10120C2
:101DD0008B490860FFF704FC054606E0FFF700FCAE
:101DE000401B022801D903200EE78348406A00F017
:101DF00002000028F2D0012001F0C6FD13E000200F
:101E00007F490860FFF7ECFB054606E0FFF7E8FBBB
:101E1000401B022801D90320F6E67748406A00F00B
:101E200002000028F2D1207800F00400042873D1C9
:101E300000277148C06900F0805070B900BF6E483B
:101E4000C06940F080506C49C8610846C06900F024
:101E50008050009000BF00BF01276A48006800F46E
:101E60008070B0B96748006840F4807065490860C8
:101E7000FFF7B6FB054606E0FFF7B2FB401B642800
:101E800001D90320C0E65F48006800F48070002894
:101E9000F2D000BFE068012806D15748006A40F040
:101EA00001005549086227E0E06858B95248006AC5
:101EB00020F00100504908620846006A20F0040042
:101EC000086219E0E06805280BD14B48006A40F031
:101ED0000400494908620846006A40F001000862AF
:101EE0000AE04548006A20F00100434908620846BC
:101EF000006A20F00400086200BFE068A0B1FFF7AC
:101F00006FFB054609E0FFF76BFB401B41F2883190
:101F1000884202D9032077E622E03748006A00F0C1
:101F200002000028EFD012E0FFF75AFB054608E058
:101F3000FFF756FB401B41F28831884201D903204C
:101F400062E62D48006A00F002000028F0D1012F5F
:101F500005D12948C06920F080502749C86100BFD9
:101F6000E069C8B32448406800F00C00082860D03D
:101F7000E069022848D1002020490866FFF730FBBD
:101F8000054606E0FFF72CFB401B022801D9032081
:101F90003AE61948006800F000700028F2D1206A83
:101FA000B0F5803F07D11448406820F40030A168A4
:101FB000084311494860D4E9080108430E494968BB
:101FC00021F4741108430C49486001200B4908664C
:101FD000FFF706FB054607E03DE0FFF701FB401B6E
:101FE000022801D903200FE60348006800F00070C2
:101FF0000028F2D02FE00000001002400000424212
:102000008004424200700040002014490866FFF737
:10201000E7FA054606E0FFF7E3FA401B022801D97C
:102020000320F1E50E48006800F000700028F2D1AE
:1020300011E0E069012800D1E6E50948466806F4A8
:102040008031206A814204D106F47011606A8142B5
:1020500001D00120D8E50020D6E500000000424272
:102060000010024010B504460CB9012010BD606A92
:1020700038B96068B0F5827F00D105E00021E161E8
:1020800002E00021216161610021A16294F8510008
:1020900028B9002084F85000204600F043F80220C0
:1020A00084F851002068006820F040002168086032
:1020B000A08800F48270218901F404410843A189B9
:1020C00001F400610843217C01F002010843217DF5
:1020D00001F001010843218B01F400710843217FC5
:1020E00001F0380108432021095D01F08001084317
:1020F000218D01F400510843216808600421A06982
:1021000001EA1040216848602068C06920F400603E
:102110002168C86100206065012084F8510000201A
:10212000A4E7000010B586B004460020029003909A
:10213000049005902B492068884251D100BF2A485D
:10214000806940F48050284988610846806900F41D
:102150008050019000BF00BF00BF0846806940F07A
:10216000080088610846806900F00800019000BFFF
:1021700000BF28200290022003900320059002A9AE
:102180001A48FFF787F8102002900020039004906F
:1021900002A91648FFF77EF800BF1549486840F0CD
:1021A000E06040F00100486000BF1248124908603A
:1021B000002048600021104881608021C16000211A
:1021C0000161416181614FF44051C161FFF71CF829
:1021D00008B1FEF700F900BF0748E064446200BFA1
:1021E00006B010BD0030014000100240000C01405C
:1021F000000001401C0002401001002070B50446A0
:102200002546681EB0F1807F01D301200FE0681ED3
:102210004FF0E02148610F214FF0FF3001F098FEB0
:1022200000204FF0E021886107200861002070BD88
:102230007047704710B50346002200BF93F83C007A
:10224000012801D1022010BD012083F83C0000BF0D
:1022500022F0FF00CC6840EA040222F440708C684F
:1022600040EA040222F480604C6840EA040222F44E
:1022700000600C6840EA040222F480500C6940EAD5
:10228000040222F400504C6940EA040222F4804027
:10229000CC6940EA04021868426400BF002083F859
:1022A0003C0000BF00BFCEE730B502460B4600BF82
:1022B00092F83C00012801D1022030BD012082F8B3
:1022C0003C0000BF022082F83D001068446810689E
:1022D000816824F070041868044310684460144D49
:1022E0001068A84213D0134D1068A8420FD0106890
:1022F000B0F1804F0BD0104D1068A84207D00F4DA1
:102300001068A84203D00E4D1068A84205D121F0F4
:1023100080015868014310688160012082F83D0007
:1023200000BF002082F83C0000BF00BFC5E70000EE
:10233000002C01400034014000040040000800402F
:10234000000C004010B504460CB9012010BD94F8F3
:102350003D0028B9002084F83C00204600F026F813
:10236000022084F83D00211D206801F079FB012046
:1023700084F8460000BF84F83E0001213F2001554B
:10238000402001554120015500BF00BF012084F8C5
:10239000420043200155442001554520015500BF0E
:1023A000012084F83D000020D0E7000010B586B081
:1023B0000446002002900390049005906149206833
:1023C00088420DD100BF6048806940F400605E49DA
:1023D00088610846806900F40060019000BFAFE0AA
:1023E0005A492068884224D100BF5748C06940F04C
:1023F00002005549C8610846C06900F0020001901A
:1024000000BF00BF00BF0846806940F0040088613B
:102410000846806900F00400019000BF00BF402022
:10242000029000200390049002A94948FEF732FF71
:1024300086E048492068884224D100BF4248C069EC
:1024400040F008004049C8610846C06900F0080033
:10245000019000BF00BF00BF0846806940F0040043
:1024600088610846806900F00400019000BF00BF49
:102470000420029000200390049002A93448FEF743
:1024800009FF5DE034492068884216D100BF2E481C
:10249000C06940F010002C49C8610846C06900F0CE
:1024A0001000019000BF00BF002201213620FFF77D
:1024B0001DF93620FFF70AF942E0284920688842D2
:1024C00016D100BF2048C06940F020001E49C861F5
:1024D0000846C06900F02000019000BF00BF002244
:1024E00011463720FFF702F93720FFF7EFF827E012
:1024F0001B492068884223D100BF1348806940F4FB
:102500000050114988610846806900F4005001902C
:1025100000BF00BF00BF0846806940F0100088611E
:102520000846806900F01000019000BF00BF402005
:10253000029000200390049002A90A48FEF7AAFE28
:1025400006B010BD002C0140001002400004004005
:1025500000080140000C0040001000400014004042
:102560000034014000100140014691F83D0001286F
:1025700001D001207047022081F83D000868C06842
:1025800040F001000B68D860164B0868984213D0E1
:10259000154B086898420FD00868B0F1804F0BD0F7
:1025A000124B0868984207D0114B0868984203D034
:1025B000104B086898420CD10868806800F0070248
:1025C000062A0CD00868006840F001000B6818600B
:1025D00005E00868006840F001000B681860002002
:1025E000C8E70000002C0140003401400004004016
:1025F00000080040000C00402DE9F04104460D4663
:10260000002700BF94F83C00012802D10220BDE859
:10261000F081012084F83C0000BF022084F83D00D6
:102620002068866826F0770626F47F462068866054
:102630002868502833D00CDC202850D004DC002837
:102640004BD0102851D149E0302849D040284CD1F6
:1026500039E060282DD0702807D0B0F5805F03D016
:10266000B0F5005F41D10DE041E0D5E902136A68A1
:10267000206801F05CFA2068866846F077062068DA
:10268000866034E0D5E902136A68206801F04FFAE9
:102690002068806840F480402168886027E0EA680C
:1026A0006968206801F08DFB5021206801F04AFA2A
:1026B0001DE0EA686968206801F0D4FB60212068A9
:1026C00001F040FA13E0EA686968206801F079FBDC
:1026D0004021206801F036FA09E000BF00BF00BFCA
:1026E0002968206801F02EFA01E0012700BF00BF31
:1026F000012084F83D0000BF002084F83C0000BFAA
:10270000384684E72DE9F04104460D4614B901200E
:10271000BDE8F08194F83D0028B9002084F83C0021
:10272000204600F051F8022084F83D0020688068BF
:1027300044F20701884321688860211D206801F068
:102740008FF92068D0F80880206886692068076AB9
:10275000286840EA080840F203308643A969A8685F
:1027600040EA0120064340F60C4086434FF2F00059
:102770008643E969E86840EA0120064328690001C8
:10278000296A40EA0130064327F022076969686830
:1027900040EA011007432068C0F80880206886617D
:1027A00020680762012084F8460084F83E00012179
:1027B0003F200155012084F84200432001550120AB
:1027C00084F83D000020A3E710B586B00446002041
:1027D00002900390049005902068B0F1804F24D1BE
:1027E00000BF2748C06940F001002549C86108467C
:1027F000C06900F00100019000BF00BF00BF0846A3
:10280000806940F0040088610846806900F0040097
:10281000019000BF00BF03200290002003900490AD
:1028200002A91848FEF736FD27E0174920688842BC
:1028300023D100BF1248C06940F004001049C861AC
:102840000846C06900F00400019000BF00BF00BF4F
:102850000846806940F0080088610846806900F0F9
:102860000800019000BF00BFC0200290002003902C
:10287000049002A90548FEF70DFD06B010BD00004A
:10288000001002400008014000080040000C014018
:102890002DE9F04304460D4694F83E603F20075D65
:1028A00094F84280432010F804906DB9012E02D1B3
:1028B000B8F1010F02D00120BDE8F083022084F8B6
:1028C0003E0084F8420025E0042D0CD1012F02D1F6
:1028D000B9F1010F01D00120EEE702213F2001559F
:1028E0004320015516E0012E07D1012F05D1B8F183
:1028F000010F02D1B9F1010F01D00120DCE7022064
:1029000084F83E0002213F200155022084F8420055
:102910004320015515B1042D0CD105E00122002101
:10292000206801F0F3F810E001220421206801F092
:10293000EDF80AE001220021206801F0E7F8012209
:102940000421206801F0E2F800BF00BF20680068A1
:1029500040F00100216808600020ADE770472DE9D4
:10296000F04104460D461646002700BF94F83C008F
:10297000012802D10220BDE8F081012084F83C004A
:1029800000BF96B9EB68D5E90012206801F02CFA77
:102990002068806920F00C002168886120688069C7
:1029A000A96808432168886141E0042E13D1EB68CF
:1029B000D5E90012206801F069FA2068806920F4E6
:1029C00040602168886120688069A96840EA012028
:1029D000216888612BE0082E12D1EB68D5E900123E
:1029E000206801F070FA2068C06920F00C002168AE
:1029F000C8612068C069A96808432168C86116E0F9
:102A00000C2E13D1EB68D5E90012206801F077FA9B
:102A10002068C06920F440602168C8612068C069EE
:102A2000A96840EA01202168C86100E0012700BFD1
:102A3000002084F83C0000BF38469CE710B50446EF
:102A40000CB9012010BD94F83D0028B9002084F88D
:102A50003C00204600F025F8022084F83D00211DAE
:102A6000206800F0FDFF012084F8460000BF84F8D4
:102A70003E0001213F2001554020015541200155D4
:102A800000BF00BF012084F84200432001554420CC
:102A900001554520015500BF012084F83D0000206C
:102AA000D0E770472DE9F04104460D4615B994F87A
:102AB0003E000BE0042D02D13F20005D06E0082D12
:102AC00002D14020005D01E04120005D074615B9BC
:102AD00094F842000BE0042D02D14320005D06E093
:102AE000082D02D14420005D01E04520005D8046B4
:102AF000012F02D1B8F1010F02D00120BDE8F08111
:102B00001DB9022084F83E000EE0042D03D10221FD
:102B10003F20015508E0082D03D102214020015536
:102B200002E00221412001551DB9022084F8420033
:102B30000EE0042D03D102214320015508E0082DA9
:102B400003D102214420015502E002214520015514
:102B500001222946206800F0D9FF164920688842E2
:102B600013D01549206888420FD02068B0F1804FFB
:102B70000BD012492068884207D01149206888424A
:102B800003D01049206888420CD12068806800F08A
:102B90000706062E0CD02068006840F0010021686E
:102BA000086005E02068006840F0010021680860C6
:102BB0000020A3E7002C0140003401400004004045
:102BC00000080040000C004070B504462068C5684D
:102BD0002068066906F00200022819D105F00200FB
:102BE000022815D1401F2168086101202077206844
:102BF000806900F0030018B12046FFF7AFFE05E042
:102C0000204600F0DFF8204600F093F900202077FE
:102C100006F00400042819D105F00400042815D199
:102C2000C04321680861022020772068806900F491
:102C3000407018B12046FFF791FE05E0204600F0F5
:102C4000C1F8204600F075F90020207706F0080052
:102C5000082819D105F00800082815D1C0432168BB
:102C60000861042020772068C06900F0030018B1D3
:102C70002046FFF773FE05E0204600F0A3F820464B
:102C800000F057F90020207706F01000102819D125
:102C900005F01000102815D1C043216808610820F4
:102CA00020772068C06900F4407018B12046FFF713
:102CB00055FE05E0204600F085F8204600F039F981
:102CC0000020207706F0010048B105F0010030B186
:102CD0006FF0010021680861204600F0A5F906F0B8
:102CE0008000802809D105F08000802805D1C043EC
:102CF000216808612046FFF79BFA06F04000402853
:102D000009D105F04000402805D1C0432168086181
:102D1000204600F0D9F906F02000202809D105F05E
:102D20002000202805D1C043216808612046FFF714
:102D300080FA70BD10B586B0044600200290039062
:102D4000049005901B492068884230D100BF1A4882
:102D5000806940F00800184988610846806900F0E1
:102D60000800019000BF00BF00BF0846806940F026
:102D7000040088610846806900F00400019000BFEB
:102D800000BF4FF4604002900220039003200590A2
:102D900002A90A48FEF77EFA4FF4E0600290022092
:102DA00003900320059002A90548FEF773FA06B0C8
:102DB00010BD0000002C014000100240000C01403A
:102DC0000008014070472DE9F04104460D461646C3
:102DD000002700BF94F83C00012802D10220BDE882
:102DE000F081012084F83C0000BF36B1042E1BD0D6
:102DF000082E31D00C2E5ED145E02946206800F027
:102E0000ABFE2068806940F0080021688861206876
:102E1000806920F004002168886120688069296940
:102E200008432168886148E02946206800F0CCFE0C
:102E30002068806940F400602168886120688069AA
:102E400020F480602168886120688069296940EAEF
:102E500001202168886130E02946206800F0F2FEF8
:102E60002068C06940F008002168C8612068C06916
:102E700020F004002168C8612068C06929690843FE
:102E80002168C86119E02946206800F017FF206812
:102E9000C06940F400602168C8612068C06920F4FE
:102EA00080602168C8612068C069296940EA012002
:102EB0002168C86101E0012700BF00BF00BF0020FA
:102EC00084F83C0000BF384689E710B504460CB9C9
:102ED000012010BD94F83D0028B9002084F83C0082
:102EE000204600F025F8022084F83D00211D2068CE
:102EF00000F0B6FD012084F8460000BF84F83E00D3
:102F000001213F200155402001554120015500BFBE
:102F100000BF012084F842004320015544200155A0
:102F20004520015500BF012084F83D000020D0E776
:102F30007047704770B504460D4615B994F83E00C9
:102F40000BE0042D02D13F20005D06E0082D02D1E8
:102F50004020005D01E04120005D012801D00120FA
:102F600070BD1DB9022084F83E000EE0042D03D18F
:102F700002213F20015508E0082D03D10221402005
:102F8000015502E002214120015501222946206815
:102F900000F0BCFD1F492068884203D01E4920680C
:102FA000884201D1012000E0002028B12068406C57
:102FB00040F400402168486416492068884213D0D4
:102FC0001549206888420FD02068B0F1804F0BD09F
:102FD00012492068884207D011492068884203D0EE
:102FE0001049206888420CD12068806800F00706EC
:102FF000062E0CD02068006840F0010021680860AF
:1030000005E02068006840F00100216808600020A9
:10301000A6E70000002C01400034014000040040FD
:1030200000080040000C004070470246002031B10B
:10303000042907D0082908D00C290CD108E013680E
:10304000586B09E01368986B06E01368D86B03E0CF
:103050001368186C00E000BF00BF704770B50446ED
:103060000D4600BF94F83C00012801D1022070BD3C
:10307000012084F83C0000BF022084F83D0029466E
:10308000204600F045FE48B1012084F83D0000BF15
:10309000002084F83C0000BF0120E8E72068C068F9
:1030A00020F040002168C8602068C06820F480409B
:1030B0002168C860012084F83D0000BF002084F82A
:1030C0003C0000BF00BFD2E7704700BFFEE7000032
:1030D00000B58BB00020089009900A901C2101A82F
:1030E000FDF794F82F483049086081152E4881601B
:1030F0000021017301754FF46021C16100202A494C
:103100004860012128480161FDF776FC08B1FDF710
:1031100062F9072008900120099000200A9008A970
:103120002148FDF7B9FB08B1FDF755F907200190DB
:103130000120029004200590052003904FF4805058
:10314000079000208DF819008DF81800049001A94F
:103150001548FDF7D1F908B1FDF73DF908200190B8
:103160000220029001A91048FDF7C6F908B1FDF749
:1031700032F9092001900320029001A90A48FDF7C5
:10318000BBF908B1FDF727F9052001900420029052
:1031900001A90548FDF7B0F908B1FDF71CF90BB01E
:1031A00000BD0000002401403000002000B587B0C1
:1031B0001C216846FDF72AF8234824490860811538
:1031C000224881600021017301754FF46021C161C3
:1031D00000201E49486001211C480161FDF70CFCDC
:1031E00008B1FDF7F8F803200090012001900320BA
:1031F0000490052002904FF48050069000208DF836
:1032000015008DF81400039069461048FDF774F915
:1032100008B1FDF7E0F80420009002200190694613
:103220000A48FDF769F908B1FDF7D5F80C200090C0
:103230000320019069460548FDF75EF908B1FDF7E6
:10324000CAF807B000BD000000280140600000205F
:1032500010B50E480E4908600920486000210C484E
:103260008160C1604FF480210161890041610021CA
:1032700001764176012181760021C176017741777F
:10328000FDF7F8FC08B1FDF7A6F810BD006400409A
:103290009000002008B500BF0A48406940F00100D6
:1032A000084948610846406900F00100009000BFED
:1032B00000BF002211460C20FEF718FA0C20FEF782
:1032C00005FA08BD0010024000B585B0002001904D
:1032D00002900390049000BF5C48806940F0400079
:1032E0005A4988610846806900F04000009000BF9C
:1032F00000BF00BF0846806940F0100088610846A2
:10330000806900F01000009000BF00BF00BF0846B9
:10331000806940F0040088610846806900F004007C
:10332000009000BF00BF00BF0846806940F0080061
:1033300088610846806900F00800009000BF00BF67
:1033400000BF0846806940F0200088610846806917
:1033500000F02000009000BF00BF00221C213C486C
:10336000FEF738F9002240F604013A48FEF732F938
:10337000002280213848FEF72DF9002280213748AD
:10338000FEF728F91C2001900120029000200390F4
:103390000220049001A92E48FDF77CFF2120019016
:1033A00000200290039001A92B48FDF773FF042031
:1033B00001900320029001A92748FDF76BFF40F61A
:1033C000040001901120029000200390032004903B
:1033D00001A92048FDF75EFF4FF48060019020486E
:1033E00002900020039001A91A48FDF753FF4FF403
:1033F000014001901B4802900020039001A917484A
:10340000FDF748FF4FF48050019000200290039098
:1034100001A91248FDF73EFF802001900120029093
:10342000002003900220049001A90B48FDF732FF11
:10343000802001900120029000200390032004903E
:1034400001A90648FDF726FF05B000BD00100240A7
:1034500000180140000C0140001001400014014020
:10346000000011100000211010B50E480E49086030
:103470004FF48270486000210B488160C160016197
:1034800041614FF4007181611021C161002101622D
:10349000416281620A21C162FEF7E4FD08B1FCF7D6
:1034A0009AFF10BD00300140B800002000B595B073
:1034B000002011901290139014900F9010901C21E6
:1034C00008A8FCF7A3FE20216846FCF79FFE3C48B5
:1034D0003C4908600020486020213A48816040F65D
:1034E000C901C16000210161416180218161FEF754
:1034F00029FF08B1FCF76FFF4FF48050119011A91C
:103500003048FFF779F808B1FCF765FF2D48FFF761
:10351000DCFC08B1FCF75FFF70200F90802010905A
:103520000FA92848FEF7C0FE08B1FCF754FF702031
:10353000089040F26540099000200A900B900C9092
:103540000D900E90002208A91E48FFF73CFC08B120
:10355000FCF741FF042208A91A48FFF734FC08B120
:10356000FCF739FF082208A91648FFF72CFC08B120
:10357000FCF731FF012009900C2208A91148FFF740
:1035800022FC08B1FCF727FF4FF4006000904010C8
:1035900001900020029045200390002004904FF4F9
:1035A000005005904000079069460648FEF742FE2D
:1035B00008B1FCF710FF0348FFF7BCFB15B000BDD6
:1035C000002C01405401002000B58BB0242102A83A
:1035D000FCF71CFE0020009001904FF0804019493C
:1035E0000860002048600021164881604FF4805137
:1035F000C1600021016181610320029000200390DD
:1036000001200490002005900220069000200790E1
:10361000012008900020099002200A9002A9094880
:10362000FFF770F808B1FCF7D6FE0020009001907B
:1036300069460448FEF738FE08B1FCF7CCFE0BB033
:1036400000BD00009C01002000B58FB000200B9051
:103650000C900D900E90142106A8FCF7D7FD0020C9
:103660000290039004900590009001902B482C4903
:103670000860472048600021294881604FF6FF71AB
:10368000C160002101618161FEF75CFE08B1FCF7B9
:10369000A2FE4FF480500B900BA92148FEF7ACFF1F
:1036A00008B1FCF798FE1E48FFF7C8F908B1FCF70F
:1036B00092FE042006905020079000200890099068
:1036C0000A9006A91648FFF7C9FC08B1FCF783FE6B
:1036D0000020029001200390002004900590002219
:1036E00002A90F48FFF73BF908B1FCF774FE02206E
:1036F00002900390042202A90948FFF730F908B1AB
:10370000FCF769FE00200090019069460448FEF72E
:10371000CBFD08B1FCF75FFE0FB000BD0004004018
:10372000E401002000B58BB0242102A8FCF76EFD57
:103730000020009001901948194908600020486055
:103740000021174881604FF6FF71C16000210161BF
:103750008161032002900220039001200490002048
:103760000590022006900790012008900020099003
:1037700002200A9002A90A48FEF7C4FF08B1FCF72C
:103780002AFE00200090019069460548FEF78CFD56
:1037900008B1FCF720FE0BB000BD0000000800409F
:1037A0002C02002000B58BB00020079008900990F3
:1037B0000A900590069001900290039004901F4893
:1037C0001F4908600020486000211D4881604FF6B5
:1037D000FF71C160002101618161FEF7B3FD08B195
:1037E000FCF7F9FD4FF48050079007A91448FEF745
:1037F00003FF08B1FCF7EFFD1148FFF71FF908B10F
:10380000FCF7E9FD00200590069005A90C48FEF79D
:103810004BFD08B1FCF7DFFD002001900120029074
:10382000002003900490082201A90548FFF797F8AB
:1038300008B1FCF7D0FD0BB000BD0000000C00404B
:10384000740200201CB50020009001900E480F4922
:1038500008604720486000210C48816040F2F31165
:10386000C16080218161FEF76DFD08B1FCF7B3FDF9
:1038700000200090019069460448FEF715FD08B14C
:10388000FCF7A9FD1CBD000000100040BC02002098
:103890001CB50020009001900E480F49086040F2CE
:1038A000C110486000210C4881600921C16080215D
:1038B0008161FEF747FD08B1FCF78DFD0020009007
:1038C000019069460448FEF7EFFC08B1FCF783FD60
:1038D0001CBD0000001400400403002000B58BB0A4
:1038E00000200790089009900A900590069001909A
:1038F0000290039004901F481F4908600020486010
:1039000000211D4881604FF6FF71C16000210161F7
:1039100041618161FEF716FD08B1FCF75CFD4FF4D3
:103920008050079007A91448FEF766FE08B1FCF71F
:1039300052FD1148FFF782F808B1FCF74CFD00205A
:103940000590069005A90C48FEF7AEFC08B1FCF7FF
:1039500042FD00200190012002900020039004907D
:10396000002201A90448FEF7FAFF08B1FCF733FD75
:103970000BB000BD003401404C03002000BFFEE747
:1039800000BFFEE77047000008B508490968C9088C
:103990004FF47A72B1FBF2F14143009100BF00BFD6
:1039A00000994A1E00920029F9D108BD0C000020A0
:1039B000704710B5FDF71AFE10BD00B595B028216F
:1039C0000BA8FCF723FC142106A8FCF71FFC182108
:1039D0006846FCF71BFC01200B9000040C900020B3
:1039E0000D9001200F9002201290C10313914FF40B
:1039F000E01114910BA8FEF703F908B1FCF7EBFCFA
:103A00000F20069002200790002008904FF480605D
:103A1000099000200A90022106A8FDF7DDFF08B1F9
:103A2000FCF7D9FC02200090800302906846FDF765
:103A30003BFF08B1FCF7CFFC15B000BD704700009C
:103A400010B50248FFF7C0F810BD0000BC0200200E
:103A500010B50248FFF7B8F810BD000004030020BD
:103A600010B50268244B98420ED0244B98420BD0DC
:103A7000B0F1804F08D0224B984205D0214B98429C
:103A800002D0214B984203D122F070024B681A43B6
:103A9000194B98420ED0194B98420BD0B0F1804F81
:103AA00008D0174B984205D0164B984202D0164BBF
:103AB000984203D122F44072CB681A4322F080036B
:103AC0004C6943EA040202608B68C3620B6883623C
:103AD000094B984202D0094B984201D10B6903630C
:103AE00001234361036903F001031BB1036923F060
:103AF0000103036110BD0000002C014000340140AF
:103B00000004004000080040000C004030B501F007
:103B10001F05012404FA05F3046A9C430462046A45
:103B200001F01F0502FA05F52C43046230BD30B5E3
:103B30000C46816821F47F4142EA0325254329434D
:103B4000816030BD0A46816821F0700142F00703B0
:103B5000194381607047000030B5026A056A25F09C
:103B6000010505624368846924F0700424F00304AD
:103B70000D682C4322F002028D682A43104DA842A2
:103B800000D103E00F4DA84206D100BF22F0080289
:103B9000CD682A4322F00402094DA84202D0094D03
:103BA000A84207D123F4807323F400734D692B439B
:103BB0008D692B43436084614D684563026230BD6B
:103BC000002C01400034014030B5026A056A25F03E
:103BD000100505624368846924F4E04424F44074C9
:103BE0000D6844EA052422F020028D6842EA05129D
:103BF000124DA84200D103E0114DA84207D100BFE9
:103C000022F08002CD6842EA051222F040020B4DFC
:103C1000A84202D00A4DA84209D123F4806323F4BC
:103C200000634D6943EA85038D6943EA8503436078
:103C300084614D688563026230BD0000002C014044
:103C40000034014030B5026A056A25F480750562CA
:103C50004368C46924F0700424F003040D682C4305
:103C600022F400728D6842EA0522124DA84200D16A
:103C700003E0114DA84207D100BF22F40062CD68D5
:103C800042EA052222F480620A4DA84202D00A4D7F
:103C9000A84209D123F4805323F400534D6943EA29
:103CA00005138D6943EA05134360C4614D68C5631C
:103CB000026230BD002C01400034014030B5036A7F
:103CC000056A25F4805505624468C26922F4E04221
:103CD00022F440720D6842EA052223F400538D68F5
:103CE00043EA0533084DA84202D0084DA84204D14A
:103CF00024F480444D6944EA85144460C2614D68EF
:103D00000564036230BD0000002C01400034014016
:103D10002DE9F04705460C464FF0000928688668F3
:103D200026F070066068064326F007062068064302
:103D300028688660606800F00F0100293BD10011FF
:103D4000082838D2DFE800F0333435360B272D044D
:103D5000D4E90313A2682868FFF7E9FE2EE0206883
:103D6000052802D10120BDE8F0872868D0F820801E
:103D70002868006A20F001002968086228688769BD
:103D800027F0F007206947EA00172868876128684C
:103D9000C0F8208012E02269A168286800F011F8BC
:103DA0000CE02269A168286800F05CF806E000BF1A
:103DB00000BF00BF02E04FF0010900BF00BF48464E
:103DC000D1E730B50B461446026A056A25F00105B5
:103DD0000562816921F0F00141EA041122F00A0232
:103DE0001A438161026230BD70B50C461546026A05
:103DF000066A26F0010606628169154EB0420ED0B1
:103E0000144EB0420BD0B0F1804F08D0124EB042E9
:103E100005D0124EB04202D0114EB04201D101265F
:103E200000E000261EB121F00301294301E041F02A
:103E3000010121F0F001F02606EA0316314322F0D9
:103E40000A0204F00A0632438161026270BD00007A
:103E5000002C0140003401400004004000080040F4
:103E6000000C004030B50B461446026A056A25F086
:103E700010050562816921F4704141EA043122F0A4
:103E8000A00242EA03128161026230BD70B50C46A5
:103E90001546026A066A26F010060662816921F458
:103EA000407141EA052121F470414FF4704606EA61
:103EB0000336314322F0A002A02606EA041632435C
:103EC0008161026270BD70B50C461546026A066AD1
:103ED00026F480760662C16921F00301294321F0AE
:103EE000F001F02606EA0316314322F400724FF483
:103EF000007606EA04263243C161026270BD70B5E5
:103F00000C461546026A066A26F480560662C169A6
:103F100021F4407141EA052121F470414FF47046CB
:103F200006EA0336314322F400524FF4005606EA03
:103F300004363243C161026270BD00BFFEE700007B
:103F400002480068C0F30220704700000CED00E05A
:103F500010B5002804DB0A07130E054A135406E0C7
:103F60000A07140E034A00F00F031B1FD45410BDA0
:103F700000E400E018ED00E010B51748FEF7F4FA91
:103F80001648FEF7F1FA1648FCF728FA1448FCF731
:103F900007FC1448FCF704FC00F032F80C2112482E
:103FA000FEF7C8FF04211148FEF772FC00211048FB
:103FB000FEF778FD04210E48FEF774FD04210D483C
:103FC000FEF766FC00210C48FEF76CFD08210B484B
:103FD000FEF768FD002010BDBC0200200403002095
:103FE0003000002060000020540100209C010020CF
:103FF000E40100202C0200204C0300207402002069
:104000000748006840F211118843054908600846D6
:10401000006840F24441884301490860002070472D
:10402000202C0140FDF7EEFAFFF7C7FCFFF74CF933
:10403000FFF730F9FFF74CF8FFF70AF9FFF736FA08
:10404000FFF7C2FAFFF700FBFFF70EFAFFF76AFB74
:10405000FFF7A8FBFFF71CFCFFF7F4FBFFF73EFCA4
:10406000FFF7A4F8FFF788FF65E0334800680068B1
:1040700000F0020002281CD101212F48FCF776FB3A
:104080002E49088002212C48FCF770FB2B498880C0
:1040900003212948FCF76AFB284948800421264867
:1040A000FCF764FB2549C8806FF0020022490968CB
:1040B000086023480068006800F00200022816D15A
:1040C00001211F48FCF752FB1C49088102211C48B2
:1040D000FCF74CFB1949888103211948FCF746FB82
:1040E000164948816FF002001549096808601548B3
:1040F0000068006900F0020002280AD1002111487E
:10410000FEF793FF1049C8606FF002000D4909687F
:1041100008610C480068006900F0040004280AD116
:1041200004210848FEF781FF074988606FF004000A
:1041300004490968086198E7300000201000002059
:1041400060000020E401002020000020020304059C
:10415000060708090A0B0C0D0E0F101001020203CE
:104160000405060708090A0B0C0D0E0F10100102BA
:104170000000000000000000010203040607080917
:104180000000000001020304A84100080000002014
:10419000100000006C010008B84100081000002069
:1041A000E80900008801000800000000100000007D
:0841B0000100000000127A007A
:0400000508000131BD
:00000001FF
